:020000040800F2
:1000000000A000204D1D00084934000855340008A8
:100010005D340008653400086D34000800000000FD
:10002000000000000000000000000000753400081F
:1000300081340008000000008D3400089934000865
:10004000A11D0008A11D0008A11D0008A11D000898
:10005000A11D0008A11D0008B9340008A11D000859
:10006000A11D0008A11D0008A11D0008A11D000878
:10007000A11D0008A11D0008A11D0008A11D000868
:10008000A11D0008A11D0008A11D0008A11D000858
:10009000A11D0008A11D0008A11D0008A11D000848
:1000A000A11D0008A11D0008A11D0008A11D000838
:1000B000A11D0008A11D0008A11D0008A11D000828
:1000C000A11D0008A11D0008A11D0008A11D000818
:1000D000A11D0008A11D0008A11D0008A11D000808
:1000E000A11D0008A11D0008A11D0008A11D0008F8
:1000F000A11D0008A11D0008A11D0008A11D0008E8
:10010000000000000000000000000000A11D000829
:10011000A11D0008A11D0008A11D0008A11D0008C7
:10012000A11D0008A11D0008A11D0008A11D0008B7
:10013000A11D0008A11D0008000000000000000033
:10014000A11D0008A11D0008A11D0008000000005D
:10015000000000000000000000000000000000009F
:100160000000000000000000A11D0008A11D000803
:10017000A11D0008000000000000000000000000B9
:0801800000000000A11D0008B1
:1001880008B540F25010074BC2F200001B1A062BAC
:1001980000D808BD40F20003C0F20003002BF8D0DD
:1001A8009847F6E75301002008B540F2501040F296
:1001B8005013C2F20000C2F200031B1A9B1003EB9B
:1001C800D373591000D108BD40F20002C0F20002FA
:1001D800002AF8D09047F6E710B540F25014C2F262
:1001E8000004237873B9FFF7CBFF40F20003C0F295
:1001F80000032BB140F28810C0F60000AFF3008076
:100208000123237010BD00BF08B540F20003C0F2FF
:1002180000034BB140F2881040F25411C0F60000C0
:10022800C2F20001AFF3008040F25010C2F20000A9
:1002380003682BB140F20003C0F2000303B19847F2
:10024800BDE80840FFF7B0BF2DE9F0418AB0044689
:100258000D4600F0A5F840F20008C2F2000898F92F
:100268000030013306460F4604D02046294600F0E8
:100278006FFC20B9304639460AB0BDE8F081204607
:10028800294600F061FC00230022C3F6F07301F058
:10029800F9F90028EED044F6346044F63063C0F62D
:1002A8000000C0F60003CDE9044501930123CDE920
:1002B800024500930023089300F074FC98F900307D
:1002C800022BCDE9060108D0684600F069FC20B190
:1002D800089B3BB9DDE90667CCE701F001FD212366
:1002E8000360F5E701F0FCFC089B0360F2E700BF40
:1002F8002DE9F0478AB004460D4600F0B9FA40F2FD
:10030800000AC2F2000A9AF90030013306460F4685
:100318000FD02046294600F01BFC50B14FF00008D2
:100328004FF000092046294642464B4601F08CF919
:1003380020B9304639460AB0BDE8F0879AF800601F
:1003480044F63863C0F600030122CDE904458DE880
:100358000C000023CDE90245089356B9CDE906897A
:10036800684600F01DFC70B1089B8BB9DDE9066793
:10037800DFE74046494642464B4601F01DF8022E4B
:10038800CDE90601ECD101F0ABFC21230360EBE7DA
:1003980001F0A6FC089B0360E8E700BF00F02EBB55
:1003A8002DE9F84F4FF6FF76C3F6EF7621F00043BC
:1003B800B34204460D460F460DDD03F1404606F5EF
:1003C8008013034340F0C780002940F35281002086
:1003D8000021BDE8F88F4FF6FF72C3F6DF72934233
:1003E80040F3AF800029C0F27F810B46002102460E
:1003F800C3F6F0710020002600F000FD0023002263
:10040800C3F6E07300F0AEFE04460D4600F030FA85
:100418009BA3D3E90023894680460F4620462946F8
:1004280000F0A0FE98A3D3E9002300F0E9FC2246DF
:100438002B4600F097FE96A3D3E9002300F0DEFCDC
:1004480022462B4600F08EFE93A3D3E9002300F04A
:10045800D7FC22462B4600F085FE91A3D3E9002362
:1004680000F0CCFC22462B4600F07CFE8EA3D3E99C
:10047800002300F0C5FC22462B4600F073FE8CA337
:10048800D3E9002382468B462046294600F06AFEBF
:1004980089A3D3E9002300F0B1FC22462B4600F0E3
:1004A80061FE87A3D3E9002300F0AAFC22462B466D
:1004B80000F058FE84A3D3E9002300F09FFC2246F5
:1004C8002B4600F04FFE00230022C3F6F07300F025
:1004D80097FC02460B465046594600F06DFF4246CF
:1004E8004B4600F03FFE32464B4682468B4630462E
:1004F800494600F037FE02460B462046294600F0E2
:100508007DFC32464B4604460D464046494600F0BF
:1005180077FC02460B462046294600F04DFF02466E
:100528000B465046594600F06BFC02460B463046D7
:10053800494600F065FC02460B4600F061FCBDE848
:10054800F88F0022C3F6604293420EDC60A1D1E925
:100558000001BDE8F88F02460B4600F04FFC02464A
:100568000B4600F029FFBDE8F88F02460B4600F065
:10057800F9FD43A3D3E9002306460F4600F0F2FD38
:1005880041A3D3E9002300F03BFC32463B4600F090
:10059800E9FD3FA3D3E9002300F030FC32463B4697
:1005A80000F0E0FD3CA3D3E9002300F029FC32462B
:1005B8003B4600F0D7FD3AA3D3E9002300F01EFC28
:1005C80032463B4600F0CEFD37A3D3E9002300F0C6
:1005D80017FC32463B4600F0C5FD35A3D3E900239E
:1005E800804689463046394600F0BCFD32A3D3E93F
:1005F800002300F003FC32463B4600F0B3FD30A375
:10060800D3E9002300F0FCFB32463B4600F0AAFD8C
:100618002DA3D3E9002300F0F1FB32463B4600F05E
:10062800A1FD00230022C3F6F07300F0E9FB0246A7
:100638000B464046494600F0BFFE02460B462046A0
:10064800294600F08FFD02460B4623A1D1E900019F
:1006580000F0D4FB02460B462046294600F0CEFBAC
:1006680002460B461AA1D1E9000100F0C7FBBDE81C
:10067800F88F1BA1D1E90001BDE8F88FAFF3008026
:1006880009F7FD0DE13D023F88B20175E0EF493FF2
:100698003B8F68B52882A43F5544880E55C1C93F91
:1006A8007D6FEB0312D6D43F555555555555C53F6B
:1006B80082922EB1C5B8B33F59018D1B6C06E63F37
:1006C800C88A599CE52A00404B2D8A1C273A0340CA
:1006D800182D4454FB21F93F075C143326A6913C9E
:1006E800182D4454FB21094000230022C3F6F0735F
:1006F80000F086FB00230022C3F6E07300F032FD11
:1007080043A3D3E9002304460D4600F02BFD42A382
:10071800D3E9002300F074FB22462B4600F022FDAB
:100728003FA3D3E9002300F069FB22462B4600F0E3
:1007380019FD3DA3D3E9002300F062FB22462B46B6
:1007480000F010FD3AA3D3E9002300F057FB22463E
:100758002B4600F007FD38A3D3E9002300F050FB37
:1007680022462B4600F0FEFC804689462046294654
:1007780000F07EF832A3D3E9002306460F46204650
:10078800294600F0EFFC30A3D3E9002300F036FB44
:1007980022462B4600F0E6FC2DA3D3E9002300F007
:1007A8002FFB22462B4600F0DDFC2BA3D3E90023C8
:1007B80000F024FB22462B4600F0D4FC0023002244
:1007C800C3F6F07300F01CFB02460B464046494650
:1007D80000F0F2FD32463B4600F0C4FC20A3D3E90A
:1007E800002300F00BFB02460B463046394600F06A
:1007F80007FB02460B4600F003FB02460B461AA114
:10080800D1E9000100F0FAFABDE8F88FAFF30080F3
:1008180009F7FD0DE13D023F88B20175E0EF493F60
:100828003B8F68B52882A43F5544880E55C1C93FFF
:100838007D6FEB0312D6D43F555555555555C53FD9
:1008480082922EB1C5B8B33F59018D1B6C06E63FA5
:10085800C88A599CE52A00404B2D8A1C273A034038
:10086800075C143326A6913C182D4454FB210940FB
:100878002DE9F8430027B946C7F6F077C7F6F079AF
:100888000F404F4504460D4602460B460E4680462D
:1008980000F09980002977DD0F1500F0828026F09E
:1008A8007F43A7F2FF3723F47003FA0743F480135A
:1008B80044BF4FEAD8724FEA48084FF0000C48BFCF
:1008C80002EB430360464FEAD8727F1002EB430302
:1008D80016244FEA48024FF400114518D60F9D42DE
:1008E8004FEA4202DEBFC5EB030368188C4449088F
:1008F800013C06EB4303F0D12026A0464FF000410F
:100908000EE081461B1A954288BF013B521B6418B2
:100918004846D50F49085200013E05EB430315D060
:10092800984201EB080503DB954298BF8342F0D15A
:1009380005F0004905EB0108B9F1004FE1D1B8F124
:10094800000FA8BF00F10109DCDADAE7134312D17E
:1009580066084FEA6C031CF0010F03F17F5318BFC0
:1009680046F0004603F50013344603EB07552046CE
:100978002946BDE8F883631C08BF0CF1010CE8D0D8
:1009880004F001031C19E3E721F000460643EED00A
:1009980041BB0F464FEAD826153F4FEA4858002E6C
:1009A800F8D016F4801319D176000133F102FBD583
:1009B800C3F10101C3F1200228FA02F27F1816439D
:1009C80008FA03F86BE700F0CDFB02460B46204619
:1009D800294600F015FA04460D46C8E720220121F1
:1009E8000023E9E702460B4600F008FA02460B46E8
:1009F80000F0E2FC04460D46B9E700BFF8B521F067
:100A0800004620F000440346B4F1FF4FD8BFB6F1CA
:100A1800FF4F054645DCB1F17E5F4CD08F1707F0DC
:100A2800020747EAD0774CB9022F3FD0032F03D1F2
:100A380040F6DB73CCF249031846F8BD36B3B6F17D
:100A4800FF4F55D0B4F1FF4F20D0A41BE4153C2C28
:100A5800C4BF40F6DB70C3F6C97030DD012F08BF94
:100A680000F10043E8D0022F33D00346002FE3D033
:100A78004BF62E51C3F2BB3100F064FE40F6DB7139
:100A8800C4F2490100F05CFE0346D5E7002D40F6AC
:100A9800DB73B8BFCBF6C973CEDBC3F6C973184690
:100AA800F8BD00F04FFE03461846F8BD40F6DB736C
:100AB800C4F24903C0E7BDE8F84000F079B814F182
:100AC8003C0FACBF0024012414EAD1741DD00020CF
:100AD800C4E74BF62E51C3F2BB3100F033FE01469A
:100AE80040F6DB70C4F2490000F02AFE0346A3E793
:100AF800B4F1FF4F10D0022FD8D0032F98D0002385
:100B0800012F99D14FF0004396E700F0D7FF00F08E
:100B18006DF900F04DF8A1E7022F0BD0032F0ED08E
:100B2800012F40F6DB7318BFC3F6497384D1CBF6A7
:100B3800497381E74CF6E433C4F216037CE74CF6BC
:100B4800E433CCF2160377E721F00041704700BF89
:100B580050EA010201D102207047D0F1010238BFEA
:100B68000022B1F1004F08BF0028F4D021F0004363
:100B78004FF6FF71A3F58010C7F6DF71884201D8E0
:100B880004207047B3F5801F01D20320704700206E
:100B9800C7F6F070834214BF002002F001007047CE
:100BA8000020704700210020C7F6F871704700BF89
:100BB8002DE9F04120F00045B5F1A14F0446064665
:100BC8000EDBB5F1FF4F00F3A480002840F6DB747C
:100BD800C8BFC3F6C97440F3CF802046BDE8F08192
:100BE8004FF6FF73C3F6DF639D4200F3A980B5F1AA
:100BF800445FC0F295804FF0FF372146204600F051
:100C0800A9FE0146804600F0A5FE46F6D711C3F6B8
:100C18008541054600F09EFE4DF65921C3F64B511D
:100C280000F090FD294600F095FE46F63531C3F6F2
:100C3800885100F087FD294600F08CFE42F66E616F
:100C4800C3F6BA5100F07EFD294600F083FE44F653
:100C58002511C3F6126100F075FD294600F07AFEF1
:100C68004AF6AB21C3F6AA6100F06CFD414600F0DC
:100C780071FE4AF22121CBF615518046284600F034
:100C880069FE4FF26B11C3F66E5100F059FD29460B
:100C980000F060FE48F29571C3F69D5100F050FDDA
:100CA800294600F057FE48F63861C3F6E35100F0D4
:100CB80047FD294600F04EFE4CF6CD41C3F64C6187
:100CC80000F03EFD294600F045FE7B1C014656D04B
:100CD80044F6C855404600F035FDC0F600052146EB
:100CE80000F038FE05EB8703196900F029FD21465D
:100CF80000F026FD014655F8270000F021FD002EE2
:100D0800B8BF00F10044FFF668AF04462046BDE8CE
:100D1800F081014600F016FD04462046BDE8F0814A
:100D28004FF2CA21C7F2491100F00CFD4FF07E5175
:100D380000F0CCFF00283FF45EAF2046BDE8F0810C
:100D480000F054F84FF6FF73C3F697739D424FF6C1
:100D5800FF7304461FDCC3F62F739D423DDC01463A
:100D6800002700F0EFFC4FF07E5100F0E9FC4FF057
:100D78008041054620461FE0CBF6C9742DE7404662
:100D880000F0E0FC214600F0E5FD0146204600F0B9
:100D9800D7FC044621E7C4F21B039D4214DC4FF044
:100DA8007F51022700F0CCFC4FF07F5105462046CA
:100DB80000F0D0FD4FF07E5100F0C4FC01462846FB
:100DC80000F07CFE044618E700202146CBF6807030
:100DD800032700F073FE04460FE74FF07E5101270A
:100DE80000F0AEFC05462046E4E700BF20F00040D6
:100DF800704700BF81F0004102E000BF83F000436C
:100E080030B54FEA41044FEA430594EA050F08BF9D
:100E180090EA020F1FBF54EA000C55EA020C7FEA61
:100E2800645C7FEA655C00F0E2804FEA5454D4EBDE
:100E38005555B8BF6D420CDD2C4480EA020281EAA8
:100E4800030382EA000083EA010180EA020281EAE0
:100E58000303362D88BF30BD11F0004F4FEA013132
:100E68004FF4801C4CEA113102D0404261EB410141
:100E780013F0004F4FEA03334CEA133302D05242C7
:100E880063EB430394EA050F00F0A780A4F1010483
:100E9800D5F1200E0DDB02FA0EFC22FA05F28018BD
:100EA80041F1000103FA0EF2801843FA05F35941A3
:100EB8000EE0A5F120050EF1200E012A03FA0EFC22
:100EC80028BF4CF0020C43FA05F3C01851EBE3714C
:100ED80001F0004507D54FF0000EDCF1000C7EEB69
:100EE80000006EEB0101B1F5801F1BD3B1F5001FA7
:100EF8000CD349085FEA30004FEA3C0C04F10104C6
:100F08004FEA445212F5800F80F09A80BCF1004FEE
:100F180008BF5FEA500C50F1000041EB045141EA70
:100F2800050130BD5FEA4C0C404141EB010111F471
:100F3800801FA4F10104E9D191F0000F04BF01461C
:100F48000020B1FA81F308BF2033A3F10B03B3F1FA
:100F580020020CDA0C3208DD02F1140CC2F10C028A
:100F680001FA0CF021FA02F10CE002F11402D8BFE8
:100F7800C2F1200C01FA02F120FA0CFCDCBF41EAB4
:100F88000C019040E41AA2BF01EB0451294330BD83
:100F98006FEA04041F3C1CDA0C340EDC04F1140460
:100FA800C4F1200220FA04F001FA02F340EA030037
:100FB80021FA04F345EA030130BDC4F10C04C4F17D
:100FC800200220FA02F001FA04F340EA030029465D
:100FD80030BD21FA04F0294630BD94F0000F83F4A7
:100FE800801306BF81F480110134013D4EE77FEA8A
:100FF800645C18BF7FEA655C29D094EA050F08BFD6
:1010080090EA020F05D054EA000C04BF19461046B6
:1010180030BD91EA030F1EBF0021002030BD5FEAFA
:10102800545C05D14000494128BF41F0004130BD22
:1010380014F580043CBF01F5801130BD01F0004576
:1010480045F0FE4141F470014FF0000030BD7FEAE9
:10105800645C1ABF194610467FEA655C1CBF0B46E4
:10106800024650EA013406BF52EA033591EA030FFB
:1010780041F4002130BD00BF90F0000F04BF0021F3
:10108800704730B54FF4806404F132044FF0000526
:101098004FF0000150E700BF90F0000F04BF00219F
:1010A800704730B54FF4806404F1320410F0004505
:1010B80048BF40424FF000013EE700BF42004FEA00
:1010C800E2014FEA31014FEA02701FBF12F07F437D
:1010D80093F07F4F81F06051704792F0000F14BF7A
:1010E80093F07F4F704730B54FF4607401F00045BE
:1010F80021F0004120E700BF50EA010208BF704715
:1011080030B54FF000050AE050EA010208BF704709
:1011180030B511F0004502D5404261EB41014FF472
:10112800806404F132045FEA915C3FF4DCAE4FF076
:1011380003025FEADC0C18BF03325FEADC0C18BF5D
:10114800033202EBDC02C2F1200300FA03FC20FAAE
:1011580002F001FA03FE40EA0E0021FA02F11444FB
:10116800C1E600BF70B54FF0FF0C4CF4E06C1CEA10
:1011780011541DBF1CEA135594EA0C0F95EA0C0F85
:1011880000F0DEF82C4481EA030621EA4C5123EAF8
:101198004C5350EA013518BF52EA033541F4801127
:1011A80043F4801338D0A0FB02CE4FF00005E1FBDA
:1011B80002E506F00042E0FB03E54FF00006E1FB24
:1011C80003569CF0000F18BF4EF0010EA4F1FF0467
:1011D800B6F5007F64F5407404D25FEA4E0E6D41A7
:1011E80046EB060642EAC62141EA55514FEAC520B8
:1011F80040EA5E504FEACE2EB4F1FD0C88BFBCF534
:10120800E06F1ED8BEF1004F08BF5FEA500E50F1E4
:10121800000041EB045170BD06F0004646EA0101AA
:1012280040EA020081EA0301B4EB5C04C2BFD4EBDC
:101238000C0541EA045170BD41F480114FF0000ED5
:10124800013C00F3AB8014F1360FDEBF002001F043
:10125800004170BDC4F10004203C35DA0C341BDCBD
:1012680004F11404C4F1200500FA05F320FA04F08F
:1012780001FA05F240EA020001F0004221F00041C3
:1012880010EBD37021FA04F642EB06015EEA430E36
:1012980008BF20EAD37070BDC4F10C04C4F1200566
:1012A80000FA04F320FA05F001FA04F240EA020019
:1012B80001F0004110EBD37041F100015EEA430EEA
:1012C80008BF20EAD37070BDC4F1200500FA05F20A
:1012D8004EEA020E20FA04F301FA05F243EA020389
:1012E80021FA04F001F0004121FA04F220EA020098
:1012F80000EBD3705EEA430E08BF20EAD37070BDDE
:1013080094F0000F0FD101F00046400041EB0101BD
:1013180011F4801F08BF013CF7D041EA060195F09F
:10132800000F18BF704703F00046520043EB030359
:1013380013F4801F08BF013DF7D043EA0603704746
:1013480094EA0C0F0CEA135518BF95EA0C0F0CD051
:1013580050EA410618BF52EA4306D1D181EA030197
:1013680001F000414FF0000070BD50EA410606BF91
:101378001046194652EA430619D094EA0C0F02D1D6
:1013880050EA013613D195EA0C0F05D152EA03361B
:101398001CBF104619460AD181EA030101F0004139
:1013A80041F0FE4141F470014FF0000070BD41F082
:1013B800FE4141F4780170BD70B54FF0FF0C4CF45C
:1013C800E06C1CEA11541DBF1CEA135594EA0C0F7B
:1013D80095EA0C0F00F0A7F8A4EB050481EA030EC8
:1013E80052EA03354FEA013100F088804FEA0333AF
:1013F8004FF0805545EA131343EA12634FEA02227D
:1014080045EA111545EA10654FEA00260EF000413D
:101418009D4208BF964244F1FD0404F5407402D28F
:101428005B084FEA3202B61A65EB03055B084FEA20
:1014380032024FF480104FF4002CB6EB020E75EB1D
:10144800030E22BFB61A754640EA0C005B084FEA45
:101458003202B6EB020E75EB030E22BFB61A7546C2
:1014680040EA5C005B084FEA3202B6EB020E75EB0D
:10147800030E22BFB61A754640EA9C005B084FEA85
:101488003202B6EB020E75EB030E22BFB61A754692
:1014980040EADC0055EA060E18D04FEA051545EA81
:1014A80016754FEA06164FEAC30343EA52734FEA2A
:1014B800C2025FEA1C1CC0D111F4801F0BD141EAA3
:1014C80000014FF000004FF0004CB6E711F4801F08
:1014D80004BF01430020B4F1FD0C88BFBCF5E06FE8
:1014E8003FF6AFAEB5EB030C04BFB6EB020C5FEAF8
:1014F800500C50F1000041EB045170BD0EF0004E4D
:101508004EEA113114EB5C04C2BFD4EB0C0541EA7E
:10151800045170BD41F480114FF0000E013C90E67B
:1015280045EA060E8DE60CEA135594EA0C0F08BF3F
:1015380095EA0C0F3FF43BAF94EA0C0F0AD150EA3E
:1015480001347FF434AF95EA0C0F7FF425AF1046D1
:1015580019462CE795EA0C0F06D152EA03353FF4F9
:10156800FDAE1046194622E750EA410618BF52EA76
:1015780043067FF4C5AE50EA41047FF40DAF52EA4A
:1015880043057FF4EBAE12E74FF0FF3C06E000BFE7
:101598004FF0010C02E000BF4FF0010C4DF804CDF4
:1015A8004FEA410C7FEA6C5C4FEA430C18BF7FEAB4
:1015B8006C5C1BD001B050EA410C0CBF52EA430CE2
:1015C80091EA030F02BF90EA020F0020704710F162
:1015D800000F91EA030F58BF994208BF90422CBFF1
:1015E800D8176FEAE37040F0010070474FEA410CEA
:1015F8007FEA6C5C02D150EA013C07D14FEA430C08
:101608007FEA6C5CD6D152EA033CD3D05DF8040B78
:10161800704700BF8446104662468C4619466346AA
:1016280000E000BF01B5FFF7B7FF002848BF10F181
:10163800000F01BD4DF808EDFFF7F4FF0CBF0120C6
:1016480000205DF808FB00BF4DF808EDFFF7EAFF42
:1016580034BF012000205DF808FB00BF4DF808EDFD
:10166800FFF7E0FF94BF012000205DF808FB00BFF2
:101678004DF808EDFFF7CEFF94BF012000205DF87C
:1016880008FB00BF4DF808EDFFF7C4FF34BF012089
:1016980000205DF808FB00BF4FEA4102B2F1E043C9
:1016A80024BFB3F5001CDCF1FE5C0DD901F0004C41
:1016B8004FEAC0024CEA5070B2F1004F40EB830091
:1016C80008BF20F00100704711F0804F21D113F1BD
:1016D8003872BCBF01F00040704741F480114FEAF6
:1016E8005252C2F11802C2F1200C10FA0CF320FA7F
:1016F80002F018BF40F001004FEAC1234FEAD3239C
:1017080003FA0CFC40EA0C0023FA02F34FEA430305
:10171800CCE77FEA625307D150EA01331EBF4FF08E
:10172800FE4040F44000704701F0004040F0FE40A9
:1017380040F40000704700BF80F0004002E000BFA6
:1017480081F0004142001FBF5FEA410392EA030FA4
:101758007FEA226C7FEA236C6AD04FEA1262D2EBEE
:101768001363C1BFD218414048404140B8BF5B42F3
:10177800192B88BF704710F0004F40F4000020F08C
:101788007F4018BF404211F0004F41F4000121F0A2
:101798007F4118BF494292EA030F3FD0A2F10102EC
:1017A80041FA03FC10EB0C00C3F1200301FA03F12A
:1017B80000F0004302D5494260EB4000B0F5000F4D
:1017C80013D3B0F1807F06D340084FEA310102F10C
:1017D8000102FE2A51D2B1F1004F40EBC25008BFBE
:1017E80020F0010040EA03007047490040EB000088
:1017F80010F4000FA2F10102EDD1B0FA80FCACF1B7
:10180800080CB2EB0C0200FA0CF0AABF00EBC250B5
:1018180052421843BCBFD0401843704792F0000FA3
:1018280081F4000106BF80F400000132013BB5E7F6
:101838004FEA41037FEA226C18BF7FEA236C21D06C
:1018480092EA030F04D092F0000F08BF08467047D1
:1018580090EA010F1CBF0020704712F07F4F04D19F
:10186800400028BF40F00040704712F100723CBFB2
:1018780000F50000704700F0004343F0FE4040F4DC
:10188800000070477FEA226216BF08467FEA23639A
:101898000146420206BF5FEA412390EA010F40F485
:1018A800800070474FF0000304E000BF10F00043D1
:1018B80048BF40425FEA000C08BF704743F09643B8
:1018C80001464FF000001CE050EA010208BF7047D3
:1018D8004FF000030AE000BF50EA010208BF70475A
:1018E80011F0004302D5404261EB41015FEA010C6F
:1018F80002BF84460146002043F0B64308BFA3F167
:101908008053A3F50003BCFA8CF2083AA3EBC25348
:1019180010DB01FA02FC634400FA02FCC2F1200267
:10192800BCF1004F20FA02F243EB020008BF20F09E
:101938000100704702F1200201FA02FCC2F1200204
:1019480050EA4C0021FA02F243EB020008BF20EAF9
:10195800DC7070474FF0FF0C1CEAD0521EBF1CEA27
:10196800D15392EA0C0F93EA0C0F6FD01A4480EA15
:10197800010C400218BF5FEA41211ED04FF00063FE
:1019880043EA501043EA5111A0FB01310CF000402A
:10199800B1F5000F3EBF490041EAD3715B0040EA50
:1019A800010062F17F02FD2A1DD8B3F1004F40EB20
:1019B800C25008BF20F00100704790F0000F0CF0F3
:1019C800004C08BF49024CEA502040EA51207F3AB7
:1019D800C2BFD2F1FF0340EAC250704740F4000092
:1019E8004FF00003013A5DDC12F1190FDCBF00F083
:1019F80000407047C2F10002410021FA02F1C2F131
:101A0800200200FA02FC5FEA310040F1000053EACC
:101A18004C0308BF20EADC70704792F0000F00F01A
:101A2800004C02BF400010F4000F013AF9D040EA20
:101A38000C0093F0000F01F0004C02BF490011F4B4
:101A4800000F013BF9D041EA0C018FE70CEAD153B2
:101A580092EA0C0F18BF93EA0C0F0AD030F0004C32
:101A680018BF31F0004CD8D180EA010000F00040E6
:101A7800704790F0000F17BF90F0004F084691F0A4
:101A8800000F91F0004F14D092EA0C0F01D14202DE
:101A98000FD193EA0C0F03D14B0218BF084608D1A7
:101AA80080EA010000F0004040F0FE4040F40000F1
:101AB800704740F0FE4040F4400070474FF0FF0C84
:101AC8001CEAD0521EBF1CEAD15392EA0C0F93EACB
:101AD8000C0F69D0A2EB030280EA010C49024FEA1D
:101AE800402037D04FF0805343EA111143EA1013D6
:101AF8000CF000408B4238BF5B0042F17D024FF48E
:101B0800000C8B4224BF5B1A40EA0C00B3EB510F68
:101B180024BFA3EB510340EA5C00B3EB910F24BF51
:101B2800A3EB910340EA9C00B3EBD10F24BFA3EBD6
:101B3800D10340EADC001B0118BF5FEA1C1CE0D19E
:101B4800FD2A3FF650AF8B4240EBC25008BF20F051
:101B5800010070470CF0004C4CEA50207F32C2BFA5
:101B6800D2F1FF0340EAC250704740F400004FF042
:101B78000003013A37E792F0000F00F0004C02BF73
:101B8800400010F4000F013AF9D040EA0C0093F03D
:101B9800000F01F0004C02BF490011F4000F013B97
:101BA800F9D041EA0C0195E70CEAD15392EA0C0FFF
:101BB80008D142027FF47DAF93EA0C0F7FF470AF37
:101BC800084676E793EA0C0F04D14B023FF44CAF7A
:101BD80008466EE730F0004C18BF31F0004CCAD10F
:101BE80030F000427FF45CAF31F000437FF43CAF4B
:101BF8005FE700BF4FF0FF3C06E000BF4FF0010C6D
:101C080002E000BF4FF0010C4DF804CD4FEA40024E
:101C18004FEA41037FEA226C18BF7FEA236C11D098
:101C280001B052EA530C18BF90EA010F58BFB2EB4B
:101C3800030088BFC81738BF6FEAE17018BF40F0CB
:101C4800010070477FEA226C02D15FEA402C05D17F
:101C58007FEA236CE4D15FEA412CE1D05DF8040B04
:101C6800704700BF844608466146FFE70FB5FFF797
:101C7800C9FF002848BF10F1000F0FBD4DF808ED4F
:101C8800FFF7F4FF0CBF012000205DF808FB00BF40
:101C98004DF808EDFFF7EAFF34BF012000205DF89A
:101CA80008FB00BF4DF808EDFFF7E0FF94BF0120E7
:101CB80000205DF808FB00BF4DF808EDFFF7D2FFE4
:101CC80094BF012000205DF808FB00BF4DF808ED27
:101CD800FFF7C8FF34BF012000205DF808FB00BFF4
:101CE80040F20403C2F200031868704770B544F666
:101CF8005C6644F65C65C0F60006C0F60005761B17
:101D0800B61007D0043D002455F8043F0134984725
:101D1800A642F9D144F6606644F65C65C0F6000652
:101D2800C0F60005761B03F089F8B61008D0043D0C
:101D3800002455F8043F01349847A642F9D170BDF4
:101D480070BD00BF002100F004B80E4B5B58435033
:101D580004310D480D4B42189A42FFF4F6AF0C4A75
:101D680000F003B8002342F8043B0A4B9A42FFF400
:101D7800F9AF00F013F8FFF7B9FF00F025F9FFF706
:101D8800FEBF0000644E0008000000205001002043
:101D98005001002010020020FFF7FEBF80B500AF01
:101DA8001F4B1F4AD2F8882042F47002C3F88820DB
:101DB8001C4B1C4A126842F001021A60194A194B5E
:101DC8005968194B0B405360164A164B1B6823F091
:101DD800847323F480331360124B124A126822F47E
:101DE80080221A600F4B0F4A526822F4FE025A6092
:101DF8000C4B0C4AD26A22F00F02DA62094A094BEC
:101E0800196B0A4B0B401363064B4FF000029A60A4
:101E180000F00EF8024B4FF000629A6080BD00BFE0
:101E280000ED00E0001002400CC07FF8CCFC00FF81
:101E380080B483B000AF4FF000037B604FF0000325
:101E48003B60344B334A126842F4A0221A60314B8B
:101E58001B6803F400333B607B6803F101037B607C
:101E68003B68002B03D17B68B3F5A06FEFD1294BFA
:101E78001B6803F40033002B03D04FF001033B60D1
:101E880002E04FF000033B603B68012B3DD1224B41
:101E98004FF012021A601F4B1E4A52685A601D4BBF
:101EA8001C4A52685A601B4B1A4A526842F48062B4
:101EB8005A60184B174A526822F47C125A60154B24
:101EC800144A526842F4E8125A60124B114A1268D6
:101ED80042F080721A6000BF0E4B1B6803F000735B
:101EE800002BF9D00B4B0B4A526822F003025A60C0
:101EF800084B084A526842F002025A6000BF054B7C
:101F08005B6803F00C03082BF9D107F10C07BD46F9
:101F180080BC7047001002400020024080B483B0AB
:101F280000AF03463960FB7197F90730002B0DDAD3
:101F38000E49FB7903F00F03A3F104033A68D2B208
:101F48004FEA0212D2B2CB181A760AE0084997F97A
:101F580007303A68D2B24FEA0212D2B2CB1883F8ED
:101F6800002307F10C07BD4680BC704700ED00E078
:101F780000E100E080B582B000AF78607A686FF069
:101F88007F439A4202D94FF0010316E00D4B7A685D
:101F980022F07F4202F1FF325A604FF0FF304FF0DB
:101FA8000F01FFF7BBFF074B4FF000029A60054B8C
:101FB8004FF007021A604FF00003184607F10807B0
:101FC800BD4680BD10E000E080B582B000AF4FF0A4
:101FD8000003FB71D94802F0D9FBD84B5A68D84B9B
:101FE800A3FB02134FEA53131846FFF7C3FF4FF042
:101FF800000001F093FE4FF0010001F08FFE4FF05A
:10200800020001F08BFE4FF0030001F087FE4FF055
:10201800040001F083FE4FF0050001F07FFE4FF051
:10202800060001F07BFE4FF0070001F077FE4FF04D
:1020380000004FF0010101F0F5FEC24B4FF0000225
:102048001A604FF0000001F0B5FE4FF0030001F0F8
:10205800B1FE4FF0040001F0ADFE4FF0010001F0B9
:10206800A9FE4FF0070001F0A5FE4FF0050001F0B2
:10207800A1FE4FF0060001F09DFE4FF0020001F0B6
:1020880099FE3FE04FF0000001F0ACFE4FF0050074
:1020980001F0A0F94FF0020001F0A4FE4FF0050096
:1020A80001F098F94FF0040001F09CFE4FF0050094
:1020B80001F090F94FF0060001F094FE4FF0050092
:1020C80001F088F94FF0070001F08CFE4FF0050091
:1020D80001F080F94FF0050001F084FE4FF0050093
:1020E80001F078F94FF0030001F07CFE4FF0050095
:1020F80001F070F94FF0010001F074FE4FF0050097
:1021080001F068F98F4B1B68002BBBD08E4B4FF04A
:1021180000021A704FF0000001F04CFE4FF003006F
:1021280001F048FE4FF0040001F044FE4FF00100BA
:1021380001F040FE4FF0070001F03CFE4FF00500B3
:1021480001F038FE4FF0060001F034FE4FF00200B7
:1021580001F030FEB1E000BF7B4B1B78DBB2052BF2
:10216800FAD1794B4FF000021A704FF0000001F0DD
:1021780021FE4FF0030001F01DFE4FF0040001F0B6
:1021880019FE4FF0010001F015FE4FF0070001F0B5
:1021980011FE4FF0050001F00DFE4FF0060001F0B2
:1021A80009FE4FF0020001F005FE684800F008FE45
:1021B800664BD3ED007AFDEEE77A17EE903ADBB284
:1021C8005BB2002BB8BF5B42DAB2614B1A705F4B4F
:1021D800D3ED017AFDEEE77A17EE903ADBB25BB207
:1021E800002BB8BF5B42DAB25A4B1A70584B1A78B8
:1021F800584B1B789A4230D9544BD3ED007AFDEEF8
:10220800E77A17EE903ADBB25BB207EE903AB8EE97
:10221800E77AF1EE047AB4EEE77AF1EE10FA03DD2C
:102228004FF0070001F0AEFD484BD3ED007AFDEE0C
:10223800E77A17EE903ADBB25BB207EE903AB8EE67
:10224800E77AF9EE047AB4EEE77AF1EE10FA34D5CB
:102258004FF0000001F096FD2FE03C4BD3ED017AE2
:10226800FDEEE77A17EE903ADBB25BB207EE903AF2
:10227800B8EEE77AF9EE047AB4EEE77AF1EE10FAFE
:1022880003D54FF0030001F07DFD304BD3ED017A0B
:10229800FDEEE77A17EE903ADBB25BB207EE903AC2
:1022A800B8EEE77AF1EE047AB4EEE77AF1EE10FAD6
:1022B80003DD4FF0040001F065FD224B1B68012B84
:1022C8003FF449AF204B4FF000021A704FF0010065
:1022D80001F070FD4FF0000001F06CFD4FF00300BD
:1022E80001F068FD4FF0040001F064FD4FF00700B5
:1022F80001F060FD4FF0050001F05CFD4FF00600B5
:1023080001F058FD4FF0020001F054FD00F01EFEF0
:1023180000F03CBD00BF0C4B1B78DBB2052BFAD19B
:10232800094B4FF000021A700B4800F059FF0B4898
:1023380000F04EFE4FF00003FB7127E0D4010020AF
:102348001F85EB51700100209D01002090010020A5
:10235800BC0100209C01002078010020840100209D
:10236800FB79FA79A0494FEA82028A1892ED007A3D
:10237800DFED9E7AC7EE277A9B4A4FEA8303D3188C
:10238800C3ED007AFB7903F10103FB71FB79022BA2
:10239800E6D9954B93ED007A934BD3ED007A27EE6F
:1023A800277A914BD3ED016A8F4BD3ED017A66EE14
:1023B800A77A37EE277A8C4BD3ED026A8A4BD3ED96
:1023C800027A66EEA77A77EE277A17EE900AFEF77A
:1023D80075FE02460B4610461946FDF789FF024670
:1023E8000B4610461946FFF757F90246804B1A600C
:1023F8007D4BD3ED017AB1EE677A7D4BD3ED007A50
:10240800C7EE277A7B4BC3ED007A7A4B93ED007ABF
:10241800784BD3ED007A67EE277AB7EE007A77EE3D
:10242800677A17EE900AFEF749FE02460B461046F9
:102438001946FDF75DFF02460B4610461946FFF7A1
:102448002BF902466C4B1A60674B93ED007A684B88
:10245800D3ED007AC7EE277A684BC3ED007A674B55
:1024680093ED007A654BD3ED007A67EE277AB7EEE5
:10247800007A77EE677A17EE900AFEF71FFE02469B
:102488000B4610461946FDF733FF02460B46104629
:102498001946FFF701F90246594B1A60554BD3ED1F
:1024A800007AF5EEC07AF1EE10FA5EDD524BD3ED0C
:1024B800007AF5EEC07AF1EE10FA26DD4E4B1B6875
:1024C8001846FEF7FBFD02460B4610461946FDF777
:1024D800BBFE02460B46104619464FF00002494B18
:1024E800FEF740FE02460B46104619463CA3D3E9C8
:1024F8000023FEF761FF02460B4610461946FFF718
:10250800CBF80246404B1A60B1E03B4B1B681846BB
:10251800FEF7D4FD02460B4610461946FDF794FE19
:1025280002460B46104619464FF00002354BFEF79F
:1025380019FE02460B461046194629A3D3E9002383
:10254800FEF73AFF02460B46104619464FF00002C6
:102558002C4BFEF755FC02460B4610461946FFF772
:102568009BF80246284B1A6081E0234BD3ED007A92
:10257800F5EEC07AF1EE10FA4ADD1F4B1B681846DB
:10258800FEF79CFD02460B4610461946FDF75CFE19
:1025980002460B46104619464FF00002194BFEF74B
:1025A800E1FD02460B46104619460DA3D3E9002368
:1025B800FEF702FF02460B46104619464FF000028E
:1025C800124BFEF71DFC02460B4610461946FFF754
:1025D80063F802460C4B1A6049E000BFAFF3008075
:1025E80000000060FB210940840100200000C8426F
:1025F800D0010020C8010020C0010020CC0100202B
:10260800A001002000806640A401002000807640E0
:10261800694B1B681846FEF751FD02460B461046EB
:102628001946FDF711FE02460B46104619464FF0B3
:102638000002624BFEF796FD02460B46104619460D
:102648005BA3D3E90023FEF7B7FE02460B4610460C
:1026580019464FF00002594BFEF7D2FB02460B46D3
:1026680010461946FFF718F80246554B1A60554BA5
:10267800D3ED007AF5EEC07AF1EE10FA5EDD524B3A
:10268800D3ED007AF5EEC07AF1EE10FA26DD4E4B66
:102698001B681846FEF712FD02460B4610461946FF
:1026A800FDF7D2FD02460B46104619464FF00002D0
:1026B800424BFEF757FD02460B46104619463CA30F
:1026C800D3E90023FEF778FE02460B46104619466A
:1026D800FEF7E2FF02463D4B1A60AAE03A4B1B6840
:1026E8001846FEF7EBFC02460B4610461946FDF766
:1026F800ABFD02460B46104619464FF000022F4B21
:10270800FEF730FD02460B461046194628A3D3E9CA
:102718000023FEF751FE02460B46104619464FF0BD
:102728000002264BFEF76CFB02460B461046194684
:10273800FEF7B2FF0246254B1A607AE0224BD3ED32
:10274800007AF5EEC07AF1EE10FA43DD1E4B1B68F5
:102758001846FEF7B3FC02460B4610461946FDF72D
:1027680073FD02460B46104619464FF00002134B04
:10277800FEF7F8FC02460B46104619460CA3D3E9AF
:102788000023FEF719FE02460B46104619464FF085
:1027980000020F4BFEF734FB02460B461046194663
:1027A800FEF77AFF0246094B1A6042E0AFF3008059
:1027B80000000060FB210940C00100200080664045
:1027C800A4010020CC010020A0010020A8010020C5
:1027D80000807640C44B1B681846FEF76FFC024623
:1027E8000B4610461946FDF72FFD02460B461046CC
:1027F80019464FF00002BD4BFEF7B4FC02460B46EB
:1028080010461946B6A3D3E90023FEF7D5FD0246C4
:102818000B46104619464FF00002B44BFEF7F0FA8B
:1028280002460B4610461946FEF736FF0246B04BE5
:102838001A60B04B93ED007ADFEDAF7AB4EEE77A29
:10284800F1EE10FA09DBAB4B93ED007ADFEDAA7AD3
:1028580077EE677AA74BC3ED007AA54B93ED007A24
:10286800DFEDA57AB4EEE77AF1EE10FA09DBA04BBA
:1028780093ED007ADFEDA07A77EE677A9C4BC3ED93
:10288800007A9E4B93ED007A974BD3ED007A27EEB2
:10289800277A9A4BD3ED026A994BD3ED007A66EE0C
:1028A800A77A77EE277A974BC3ED007A934B93ED8F
:1028B800007A954BD3ED007A27EE277A904BD3ED2B
:1028C800007A27EE277A8D4BD3ED016A8F4BD3ED33
:1028D800007A66EEA77A37EE277A884BD3ED016A3D
:1028E800894BD3ED007A66EEA76A7F4BD3ED007A69
:1028F80066EEA77A77EE677A854BC3ED007A844B4C
:102908001A68804B1B6810461946FDF747FD07EE0D
:10291800100ADFED807A27EE277ADFED7F7AC7EE9F
:10292800277A7E4BC3ED007A7C4BD3ED007AF5EE27
:10293800C07AF1EE10FA09D5784B93ED007ADFED05
:102948006E7A77EE277A754BC3ED007A694B93ED73
:10295800007ADFED737AB4EEE77AF1EE10FA00F25E
:10296800F181634B93ED007ADFED6D7AB4EEE77A8F
:10297800F1EE10FA00F2E681684B93ED007AF3EE7F
:10298800097AB4EEE77AF1EE10FA07D5634BD3ED86
:10299800007AF5EEC07AF1EE10FA13DA5F4B93ED98
:1029A800007ADFED607AB4EEE77AF1EE10FA2ADB0E
:1029B8005A4B93ED007ADFED507AB4EEE77AF1EEF8
:1029C80010FA20D84FF0070001F0DCF94FF00000B2
:1029D80001F0F0F94FF0030001F0ECF94FF00400BA
:1029E80001F0E8F94FF0010001F0E4F94FF00500BB
:1029F80001F0E0F94FF0060001F0DCF94FF00200B9
:102A080001F0D8F99DE1454B93ED007ADFED467A68
:102A1800B4EEE77AF1EE10FA2AD5404B93ED007A3E
:102A2800F3EE097AB4EEE77AF1EE10FA20DB4FF014
:102A3800060001F0A7F94FF0030001F0BBF94FF0D1
:102A4800070001F0B7F94FF0000001F0B3F94FF0BB
:102A5800050001F0AFF94FF0020001F0ABF94FF0BB
:102A6800010001F0A7F94FF0040001F0A3F968E1B3
:102A78002A4B93ED007ADFED2D7AB4EEE77AF1EE8A
:102A880010FA55D5254B93ED007ADFED277AB4EE91
:102A9800E77AF1EE10FA4BDB4FF0040001F072F91F
:102AA8004FF0000001F086F94FF0010001F082F9C3
:102AB8004FF0060001F07EF94FF0070001F07AF9B7
:102AC8004FF0050001F076F94FF0030001F072F9BC
:102AD8004FF0020001F06EF933E100BFAFF3008060
:102AE80000000060FB210940A00100200080664032
:102AF800A8010020A40100200000B44378010020B0
:102B0800CC010020C4010020C8010020C001002021
:102B1800AC01002000003443DB0F49407401002061
:102B2800000020420000AA4300008C420000E64258
:102B38009A4B93ED007ADFED9A7AB4EEE77AF1EEEC
:102B480010FA2AD5954B93ED007ADFED967AB4EE1C
:102B5800E77AF1EE10FA20DB4FF0020001F012F9EB
:102B68004FF0030001F026F94FF0070001F022F9B9
:102B78004FF0050001F01EF94FF0060001F01AF9B8
:102B88004FF0040001F016F94FF0010001F012F9BE
:102B98004FF0000001F00EF9D3E0804B93ED007A7E
:102BA800DFED817AB4EEE77AF1EE10FA2AD57B4BA5
:102BB80093ED007ADFED7A7AB4EEE77AF1EE10FA67
:102BC80020DB4FF0000001F0DDF84FF0030001F0CA
:102BD800F1F84FF0010001F0EDF84FF0050001F0B9
:102BE800E9F84FF0060001F0E5F84FF0020001F0B7
:102BF800E1F84FF0070001F0DDF84FF0040001F0B4
:102C0800D9F89EE0654B93ED007ADFED687AB4EE73
:102C1800E77AF1EE10FA2AD5604B93ED007ADFEDF2
:102C2800627AB4EEE77AF1EE10FA20DB4FF0010099
:102C380001F0A8F84FF0030001F0BCF84FF00700CE
:102C480001F0B8F84FF0050001F0B4F84FF00600B5
:102C580001F0B0F84FF0020001F0ACF84FF00000BE
:102C680001F0A8F84FF0040001F0A4F869E04B4B1C
:102C780093ED007ADFED4E7AB4EEE77AF1EE10FAD2
:102C88002AD5464B93ED007ADFED487AB4EEE77A21
:102C9800F1EE10FA20DB4FF0030001F073F84FF06B
:102CA800060001F087F84FF0070001F083F84FF0B5
:102CB800050001F07FF84FF0000001F07BF84FF0BD
:102CC800020001F077F84FF0010001F073F84FF0BF
:102CD800040001F06FF834E0304B93ED007ADFED3B
:102CE800357AB4EEE77AF1EE10FA2AD52B4B93ED4C
:102CF800007ADFED2F7AB4EEE77AF1EE10FA20DBF6
:102D08004FF0050001F03EF84FF0030001F052F8D3
:102D18004FF0070001F04EF84FF0040001F04AF8B8
:102D28004FF0060001F046F84FF0000001F042F8BD
:102D38004FF0010001F03EF84FF0020001F03AF8C0
:102D480024E023E04FF0040001F04CF84FF00300BA
:102D580001F048F84FF0070001F044F84FF0050083
:102D680001F040F84FF0060001F03CF84FF0000089
:102D780001F038F84FF0010001F034F84FF002008C
:102D880001F030F84FF0050000F024FB0A4B1B68F7
:102D9800022B3FF4BFAAFFF754B900BF740100200B
:102DA800000020430000E64200004D4300007A4343
:102DB800008093430000AA4370010020AFF3008015
:102DC80080B58AB000AF78604FF00003BB614FF068
:102DD8000003BB834FF000033B614FF00003BB824D
:102DE8004FF00003FB734FF000037B624FF00003CA
:102DF8003B6207F10F0318464FF023014FF0010221
:102E080000F0A8FB07F1180318464FF028014FF00F
:102E1800060200F09FFBFB7B03F04003002B2BD145
:102E28004FF000033B6223E03B6A4FEA430303F1A0
:102E3800010307F12801CB1813F8103C4FEA0323CC
:102E48009AB23B6A4FEA430307F12801CB1813F8FB
:102E5800103CD3189BB29AB23B6A4FEA430307F17E
:102E68002801CB1823F8182C3B6A03F101033B62B5
:102E78003B6A022BD8DD2AE04FF000033B6223E0D7
:102E88003B6A4FEA430307F12802D31813F8103CB2
:102E98004FEA03239AB23B6A4FEA430303F1010363
:102EA80007F12801CB1813F8103CD3189BB29AB23B
:102EB8003B6A4FEA430307F12801CB1823F8182C83
:102EC8003B6A03F101033B623B6A022BD8DDFB7BC3
:102ED80003F03003102B06D0202B07D0002B08D18D
:102EE800174B7B6205E0174B7B6202E0164B7B6257
:102EF80000BF4FF000033B621BE03B6A4FEA8303CD
:102F08007A68D2183B6A4FEA430307F12801CB18C5
:102F180033F8183C1BB207EE903AB8EEE77AD7EDD3
:102F2800097AC7EE277AC2ED007A3B6A03F10103FA
:102F38003B623B6A022BE0DD07F12807BD4680BDF6
:102F4800EC91E442549264425C8F644180B584B051
:102F580000AF4FF000033B734FF014037B734FF047
:102F6800E003FB734FF00003BB7307F10C03184633
:102F780000F0F8FB4FF000033B714FF040037B710A
:102F88004FF00703BB714FF00003BB724FF0000313
:102F98003B724FF000037B724FF00803FB7107F19F
:102FA8000403184600F068FB4FF080033B704FF0B5
:102FB80010037B704FF00003BB704FF00003FB70F1
:102FC8003B46184600F09AFB07F11007BD4680BD46
:102FD80080B58AB000AF78604FF0000387F82630DC
:102FE8004FF07E533B6207F114034FF032004FF06D
:102FF80023011A464FF0020300F0D0FC07F10C033E
:103008004FF032004FF028011A464FF0060300F047
:10301800C5FC7B7D03F04003002B04D04FF0400338
:1030280087F8273003E04FF0100387F827303B7DFF
:1030380003F04003002B04D07B7D03F04003002BFA
:1030480036D04FF0000387F826302CE097F826306A
:1030580097F826204FEA420202F1010207F1280000
:10306800821812F81C2C4FEA022292B211B297F879
:1030780026204FEA420207F12800821812F81C2C79
:10308800891897F8272091FBF2F292B24FEA43038E
:1030980007F12801CB1823F8102C97F8263003F1F4
:1030A800010387F8263097F82630022BCED935E071
:1030B8004FF0000387F826302CE097F8263097F871
:1030C80026204FEA420207F12800821812F81C2C29
:1030D8004FEA022292B211B297F826204FEA420232
:1030E80002F1010207F12800821812F81C2C891835
:1030F80097F8272091FBF2F292B24FEA430307F1C7
:103108002801CB1823F8102C97F8263003F1010377
:1031180087F8263097F82630022BCED907F114030A
:103128004FF032004FF023011A464FF0020300F02F
:1031380035FC7B7D03F04003002B03D04FF07A531E
:103148003B621DE03B7D03F03003102B0DD0102BAC
:1031580002DC002B05D013E0202B0AD0302B0CD03A
:103168000EE04FF07E533B620AE04FF07C533B6227
:1031780006E04FF07A533B6202E0184B3B6200BF17
:103188004FF0000387F826301FE097F826304FEA03
:1031980083037A68D21897F826304FEA430307F179
:1031A8002800C31833F8103C1BB207EE903AB8EE6B
:1031B800E77AD7ED087AC7EE277AC2ED007A97F852
:1031C800263003F1010387F8263097F82630022BC2
:1031D800DBD907F12807BD4680BD00BF9FCDAA3DBA
:1031E80080B584B000AF78604FF00003BB724FF039
:1031F8000003FB814FF00003BB814FF00003FB721B
:1032080007F10A034FF03C004FF001011A464FF056
:10321800010300F0C3FB4FF03C004FF00301674A85
:103228004FF0010300F0BAFB4FF03C004FF00401EF
:10323800634A4FF0010300F0B1FB4FF03C004FF040
:103248000701604A4FF0010300F0A8FB4FF03C0073
:103258004FF008015C4A4FF0010300F09FFB4FF06C
:103268003C004FF00501594A4FF0010300F096FB6E
:103278004FF03C004FF00601554A4FF0010300F0B3
:103288008DFBBB7A03F0E003802B24D0802B06DC77
:10329800402B12D0602B17D0202B07D037E0C02B43
:1032A80027D0E02B2CD0A02B1CD030E040F24C4390
:1032B800FB814FF47573BB8129E040F25733FB81E2
:1032C8004FF43E73BB8122E040F29E23FB814FF412
:1032D8001673BB811BE04FF4E173FB814FF4C87395
:1032E800BB8114E04FF4C873FB8140F26313BB81C8
:1032F8000DE04FF4A573FB8140F22713BB8106E074
:103308004FF0E603FB814FF0CD03BB8100BF4FF0C8
:103318000003FB722CE0FB7A4FEA83037A68D31828
:10332800FA7A4FEA420225498A5C4FEA022291B2B0
:10333800FA7A4FEA420202F101022048825C8A18B6
:1033480092B292B212B24FF47A7101FB02F206EE17
:10335800902AB8EEE67AFA8906EE902AF8EEE67A2E
:10336800C7EE277AC3ED007AFB7A03F10103FB72FB
:10337800FB7A012BCFD97B6803F108030F4A127936
:103388004FEA022291B20D4A52798A1892B292B249
:1033980012B24FF47A7101FB02F207EE902AB8EEEE
:1033A800E77ABA8906EE902AF8EEE67AC7EE277A27
:1033B800C3ED007A07F11007BD4680BDB0010020BB
:1033C800B1010020B2010020B3010020B4010020A7
:1033D800B501002080B483B000AF78607A68064BEE
:1033E8001A6000BF044B1B68002BFBD107F10C07C8
:1033F800BD4680BC704700BF6C01002080B400AFA0
:10340800064B1B68002B05D0044B1B6803F1FF32E9
:10341800024B1A60BD4680BC704700BF6C0100209B
:1034280080B400AF4FF000031846BD4680BC70471B
:1034380080B400AF4FF000031846BD4680BC70470B
:1034480080B400AFBD4680BC704700BF80B400AFF9
:10345800FEE700BF80B400AFFEE700BF80B400AF56
:10346800FEE700BF80B400AFFEE700BF80B400AF46
:10347800BD4680BC704700BF80B400AFBD4680BC6D
:10348800704700BF80B400AFBD4680BC704700BF26
:1034980080B500AFFFF7B2FF044B1B78DBB203F136
:1034A8000103DAB2014B1A7080BD00BF9D010020F4
:1034B80080B500AF4FF0000000F0D2FE0346012BAC
:1034C80040D14FF0000000F01DFD0346002B39D01D
:1034D8001D4B4FF000021A6005E01B4B1B6803F1FF
:1034E8000102194B1A60184B1A68184B9A42F4D902
:1034F80000BF4FF0000000F005FD0346002BF8D197
:10350800114B4FF000021A6005E00F4B1B6803F1E6
:1035180001020D4B1A600C4B1A680C4B9A42F4D9F5
:103528000B4B1B6803F10102094B1A60084B1B681F
:10353800022B03D9064B4FF000021A604FF000002F
:1035480000F0D0FE80BD00BFB8010020FEFF0700DC
:103558007001002080B582B000AF786013460A463B
:10356800FA703B803B88012B04D9FB7863F03F035A
:10357800FB7003E0FB7863F07F03FB7012484FF0A9
:10358800080100F09FFFFB78184600F01FF80FE0D5
:103598004FF0000000F01AF803461A467B681A70CC
:1035A8003B8803F1FF333B807B6803F101037B60B9
:1035B8003B88002BECD104484FF0080100F074FF61
:1035C80007F10807BD4680BD0010004880B582B0ED
:1035D80000AF0346FB71264B4FF480521A6011E08E
:1035E800234B1B68002B14BF00220122D2B203F127
:1035F800FF311F4B1960002A04D0FFF719FF03465B
:10360800DBB22FE01B484FF0020101F06DFB0346CF
:10361800002BE5D0FB791748194601F037FB144B0E
:103628004FF480521A6011E0114B1B68002B14BF35
:1036380000220122D2B203F1FF310D4B1960002A9A
:1036480004D0FFF7F5FE0346DBB20BE009484FF064
:10365800010101F049FB0346002BE5D0054801F0C4
:103668002DFB0346184607F10807BD4680BD00BF7D
:10367800F80000200030014080B584B000AF7860C9
:103688004FF00003FB734FF00003BB7300F074FAB4
:103698007B681A787B685B781343DAB27B689B781F
:1036A8001343DAB2FB7B1343DBB2FB737B681A79F3
:1036B8007B685B791343DAB27B689B791343DAB290
:1036C8007B68DB781343DAB2BB7B1343DBB2BB7393
:1036D80007F10F034FF032004FF020011A4600F0B7
:1036E80085F807F10E034FF032004FF023011A4618
:1036F80000F07CF807F11007BD4680BD80B584B0A6
:1037080000AF786007F10F034FF032004FF021014E
:103718001A464FF0010300F041F9FB7B03F00C035C
:10372800DBB2FB737B681A787B685B781343DAB289
:103738007B689B781343DAB27B68DB781343DAB291
:10374800FB7B1343DBB2FB7307F10F034FF032002F
:103758004FF021011A4600F049F807F11007BD465D
:1037680080BD00BF80B584B000AF78604FF0000323
:10377800FB734FF00003BB734FF000037B7300F043
:10378800FBF97B681A787B685B781343DAB2FB7BBA
:103798001343DBB2FB737B68DA78BB7B1343DBB282
:1037A800BB737B689A787B7B1343DBB27B7307F12F
:1037B8000F034FF03C004FF000011A4600F016F8D6
:1037C80007F10E034FF03C004FF001011A4600F0DC
:1037D8000DF807F10D034FF03C004FF002011A46B7
:1037E80000F004F807F11007BD4680BD80B584B02D
:1037F80002AF0B463A600246FA71BB71654B4FF453
:1038080020421A6011E0634B1B68002B14BF002292
:103818000122D2B203F1FF315E4B1960002A04D0B5
:10382800FFF7FEFD03469BB2AFE05B484FF4004153
:1038380000F07AFF0346002BE5D1FB799BB24FF4E9
:1038480000520092544819464FF001024FF080731D
:1038580000F01EFF4F4B4FF420421A6011E04D4B11
:103868001B68002B14BF00220122D2B203F1FF31E2
:10387800484B1960002A04D0FFF7D2FD03469BB2DB
:1038880083E045484FF0020100F04EFF0346002B4D
:10389800E5D0BB794048194600F02AFF3D4B4FF46C
:1038A80020421A6011E03B4B1B68002B14BF00221A
:1038B8000122D2B203F1FF31364B1960002A04D03D
:1038C800FFF7AEFD03469BB25FE033484FF080013F
:1038D80000F02AFF0346002BE5D0FB799BB24FF09E
:1038E800000200922C4819464FF001024FF0007375
:1038F80000F0CEFE274B4FF420421A6011E0254B12
:103908001B68002B14BF00220122D2B203F1FF3141
:10391800204B1960002A04D0FFF782FD03469BB2B2
:1039280033E01D484FF0020100F0FEFE0346002B75
:10393800E5D03B681B781848194600F0D9FE154BAE
:103948004FF420421A6011E0124B1B68002B14BF81
:1039580000220122D2B203F1FF310E4B1960002A76
:1039680004D0FFF75DFD03469BB20EE00A484FF016
:10397800200100F0D9FE0346002BE5D006484FF0A1
:10398800200100F0F5FE4FF00003184607F1080784
:10399800BD4680BDFC0000200054004080B584B0C6
:1039A80002AF3A600246FA710A46BA71BB80704BA0
:1039B8004FF420421A6011E06D4B1B68002B14BFB6
:1039C80000220122D2B203F1FF31694B1960002AAB
:1039D80004D0FFF725FD03469BB2C4E065484FF4C9
:1039E800004100F0A1FE0346002BE5D1FB799BB214
:1039F8004FF4005200925F4819464FF001024FF011
:103A0800000300F045FE5A4B4FF420421A6011E0C3
:103A1800574B1B68002B14BF00220122D2B203F1BE
:103A2800FF31534B1960002A04D0FFF7F9FC034615
:103A38009BB298E04F484FF0020100F075FE034634
:103A4800002BE5D0BB88012B03D9BB7963F07F033A
:103A5800BB71BB794748194600F04AFE444B4FF406
:103A680020421A6011E0424B1B68002B14BF002251
:103A78000122D2B203F1FF313D4B1960002A04D074
:103A8800FFF7CEFC03469BB26DE03A484FF0400189
:103A980000F04AFE0346002BE5D0FB799AB2BB88BA
:103AA800DBB24FF410510091324811461A464FF0DC
:103AB800007300F0EDFD2DE02D4B4FF420421A600D
:103AC80011E02B4B1B68002B14BF00220122D2B23D
:103AD80003F1FF31264B1960002A04D0FFF7A0FC40
:103AE80003469BB23FE023484FF0040100F01CFE60
:103AF8000346002BE5D01F4800F008FE03461A468F
:103B08003B681A703B6803F101033B60BB8803F113
:103B1800FF33BB80BB88002BCED1154B4FF420421E
:103B28001A6011E0124B1B68002B14BF00220122FF
:103B3800D2B203F1FF310E4B1960002A04D0FFF70F
:103B48006FFC03469BB20EE00A484FF0200100F0DC
:103B5800EBFD0346002BE5D006484FF0200100F0AE
:103B680007FE4FF00003184607F10807BD4680BD61
:103B7800FC0000200054004080B58CB000AF4FF42A
:103B880000104FF0010101F061F84FF480204FF070
:103B9800010101F01BF84FF400104FF0010101F092
:103BA80015F84FF400104FF0010101F00FF84FF431
:103BB80000104FF0010101F009F854484FF00601D8
:103BC8004FF0040200F08CFC50484FF007014FF012
:103BD800040200F085FC4FF0020387F82C304FF008
:103BE800000387F82E304FF0020387F82F304FF08C
:103BF800030387F82D304FF04003BB6207F1280319
:103C08004248194600F088FB4FF08003BB6207F179
:103C180028033E48194600F07FFB4FF0000387F861
:103C28002C304FF0000387F82E304FF0000387F850
:103C38002F304FF0030387F82D304FF00403BB6299
:103C480007F128033248194600F066FB4FF00400DC
:103C58004FF0020101F068F84FF002033B624FF0A9
:103C6800000387F824304FF0080387F825304FF019
:103C7800010387F8263007F12003184600F0C8F939
:103C88004FF000033B614FF00003BB604FF00003AF
:103C9800FB604FF000037B614FF00003BB614FF006
:103CA8000003FB611B4B7B6007F104031A481946AC
:103CB80000F06AFC18484FF0010100F0CDFC4FF00D
:103CC8001003BB624FF0000387F82C304FF000035D
:103CD80087F82E304FF0030387F82D304FF000039C
:103CE80087F82F3007F128030948194600F014FB1C
:103CF8004FF02003BB6207F128030548194600F07E
:103D08000BFB07F13007BD4680BD00BF000400482B
:103D180000100048252090000054004080B584B071
:103D280000AF0346FB71FA79134B53F8223018465B
:103D38004FF0010100F04AFFFA79104B33F81230C6
:103D4800BB604FF001033B734FF00003BB734FF0B0
:103D58000103FB734FF003037B73FA79084B53F8A5
:103D6800222007F108031046194600F0D5FA07F19A
:103D78001007BD4680BD00BFF84D0008E84D00089B
:103D88000001002080B483B000AF0346FB71FA79CC
:103D9800064B53F82230F979054A32F811209A6116
:103DA80007F10C07BD4680BC704700BF000100202A
:103DB800E84D000880B483B000AF0346FB71FA7980
:103DC800064B53F82230F979054A32F811201A8542
:103DD80007F10C07BD4680BC704700BF00010020FA
:103DE800E84D000880B483B000AF0346FB71FA7950
:103DF8000A4B53F82230F979084A52F82120928A5E
:103E080091B2F879064A32F810204A4092B29A8262
:103E180007F10C07BD4680BC704700BF00010020B9
:103E2800E84D000880B588B000AF02460B46FA712D
:103E3800BB71FA792C4B53F8223018464FF0010128
:103E480000F0C4FE4FF001004FF0010100F0DEFE6B
:103E58004FF000033B774FF00003FB77FA79234BD1
:103E680033F81230BB61FA79214B53F8222007F15D
:103E780018031046194600F04FFABB79012B2ED1D2
:103E8800FB791C4AD25CFB791B49CB5C104619466E
:103E980000F04AFFFA79194B33F812303B614FF0C2
:103EA80000033B754FF008037B754FF00103BB75AA
:103EB80007F11003184600F0ABF8FB79104AD35C01
:103EC8003B734FF00F037B734FF00F03BB734FF03F
:103ED8000103FB7307F10C03184600F02FF807F1F4
:103EE8002007BD4680BD00BF1C4E0008184E0008C4
:103EF80020010020244E0008284E0008204E00080B
:103F08002C4E000880B582B000AF0346FB71FA79E9
:103F1800084B53F82220F979074B33F81130104633
:103F2800194600F0A1FA0346184607F10807BD46EE
:103F380080BD00BF20010020184E000880B487B063
:103F480000AF78604FF000037B614FF000033B61E6
:103F58004FF00F03FB607B68DB78002B3DD02A4BCA
:103F6800DB686FEA030303F4E0634FEA13237B6122
:103F78007B69C3F104033B617B69FA6822FA03F3A6
:103F8800FB607B685B781A463B6902FA03F37B6146
:103F98007B689B781A46FB6813407A6913437B61F8
:103FA8007B694FEA03137B6118497B681B787A6940
:103FB800D2B2CB1883F80023144B7A6812784FEAF0
:103FC8005212D2B27968097801F01F014FF001004E
:103FD80000FA01F143F8221011E00C4B7A681278CC
:103FE8004FEA5212D2B27968097801F01F014FF0F6
:103FF800010000FA01F102F1200243F8221007F152
:104008001C07BD4680BC704700ED00E000E100E001
:1040180080B485B000AF78604FF00003FB608C4B34
:10402800FB607B689B79002B00F0F0807B681B6845
:104038004FEA531303F1007303F502634FEA431386
:104048001A467B681B684FEA531303F1007303F5A4
:1040580002634FEA431319687B681B6803F01F0368
:104068004FF0010000FA03F36FEA03030B401360FB
:104078007B681B684FEA53134FEA4312754BD318FA
:104088001A467B681B684FEA53134FEA4311714B7A
:10409800CB1819687B681B6803F01F034FF00100F9
:1040A80000FA03F36FEA03030B4013607B681B7984
:1040B8001A467B681B684FEA53134FEA4313D31819
:1040C800FA68D318FB60FB68FA6811687A681268A6
:1040D80002F01F024FF0010000FA02F20A431A60D0
:1040E8005B4BFB607B681B684FEA53134FEA431234
:1040F800594BD3181A467B681B684FEA53134FEA8B
:104108004311554BCB1819687B681B6803F01F03D4
:104118004FF0010000FA03F36FEA03030B4013604A
:104128007B681B684FEA53134FEA43124B4BD31873
:104138001A467B681B684FEA53134FEA4311474BF3
:10414800CB1819687B681B6803F01F034FF0010048
:1041580000FA03F36FEA03030B4013607B685B7993
:10416800102B38D17B681B684FEA53134FEA431270
:10417800394BD3181A467B681B684FEA53134FEA2A
:104188004311354BCB1819687B681B6803F01F0374
:104198004FF0010000FA03F30B4313607B681B68C0
:1041A8004FEA53134FEA43122C4BD3181A467B6835
:1041B8001B684FEA53134FEA4311284BCB18196871
:1041C8007B681B6803F01F034FF0010000FA03F33C
:1041D8000B43136036E07B685B791A467B681B6883
:1041E8004FEA53134FEA4313D318FA68D318FB6006
:1041F800FB68FA6811687A68126802F01F024FF0CB
:10420800010000FA02F20A431A601BE07B681B797E
:104218001A467B681B684FEA53134FEA4313D318B7
:10422800FA68D318FB60FB68FA6811687A68126844
:1042380002F01F024FF0010000FA02F26FEA0202D8
:104248000A401A6007F11407BD4680BC704700BFDA
:104258000004014004040140080401400C0401402A
:1042680080B485B000AF78604FF00003FB734FF067
:104278000003BB607B684FEA531303F1007303F537
:1042880002634FEA43131A687B6803F01F034FF079
:10429800010101FA03F31340BB607B684FEA531333
:1042A8004FEA43120E4BD3181A687B6803F01F03BA
:1042B8004FF0010101FA03F31340002B06D0BB684D
:1042C800002B03D04FF00103FB7302E04FF0000313
:1042D800FB73FB7B184607F11407BD4680BC70478B
:1042E8001404014080B483B000AF78607B684FEA63
:1042F80053134FEA4312074BD3187A6802F01F0290
:104308004FF0010101FA02F21A6007F10C07BD46ED
:1043180080BC70471404014080B487B000AF786057
:1043280039604FF000037B614FF000033B614FF0B1
:104338000003FB604FF000037B618CE07B694FF06A
:10434800010202FA03F33B613B681A683B691340B8
:10435800FB60FA683B699A4279D13B681B79012B6B
:1043680003D03B681B79022B3AD17B689A687B693A
:104378004FEA43034FF0030101FA03F36FEA030323
:104388001A407B689A607B689A683B685B79194633
:104398007B694FEA430301FA03F31A437B689A6087
:1043A8007B689B889AB27B699BB24FF0010101FA46
:1043B80003F39BB26FEA03039BB213409AB27B6884
:1043C8009A807B689B889AB23B689B7919467B697F
:1043D8009BB201FA03F39BB213439AB27B689A80AB
:1043E8007B681A687B694FEA43034FF0030101FABF
:1043F80003F36FEA03031A407B681A607B681A6844
:104408003B681B7919467B694FEA430301FA03F3BA
:104418001A437B681A607B68DA687B699BB24FEA4B
:1044280043034FF0030101FA03F36FEA03031A4051
:104438007B68DA607B68DA683B68DB7919467B69F8
:104448004FEA430301FA03F31A437B68DA607B6996
:1044580003F101037B617B690F2B7FF66FAF07F1D7
:104468001C07BD4680BC704780B485B000AF78603B
:104478000B467B804FF00003FB737B681B8A9AB264
:104488007B8813409BB2002B03D04FF00103FB73D2
:1044980002E04FF00003FB73FB7B184607F114079B
:1044A800BD4680BC704700BF80B483B000AF786061
:1044B8000B467B807A887B689A6107F10C07BD46BA
:1044C80080BC704780B483B000AF78600B467B80B7
:1044D8007B687A881A8507F10C07BD4680BC70474F
:1044E80080B485B000AF786013460A467A807B7046
:1044F8004FF00003FB604FF00003BB607A787B88C5
:1045080003F007034FEA830302FA03F3FB607B8897
:104518004FEAD3039BB21A467B884FEAD3039BB278
:1045280019467B6801F1080153F821107B8803F0D4
:1045380007034FEA83034FF00F0000FA03F36FEA13
:10454800030319407B6802F1080243F822107B88B4
:104558004FEAD3039BB21A467B6802F1080253F86C
:104568002220FB681343BB607B884FEAD3039BB2CE
:104578001A467B6802F10802B96843F8221007F16D
:104588001407BD4680BC704780B485B000AF786022
:1045980039604FF00003FB607B681B6823F0010261
:1045A8007B681A607B681B68FB60FA68294B1340BC
:1045B800FB603B685A683B689B684FEA03231343D8
:1045C800FA681343FB607B68FA681A603B681B68EB
:1045D80023F070627B681A617B681B6843F00102F4
:1045E8007B681A604FF00003FB607B68FA689A608A
:1045F8007B68FA68DA603B689A693B681B69134311
:10460800FB607B68FA689A607B689B6843F40042A9
:104618007B689A603B68DB68FB607B681A68FB68AC
:104628001A437B681A607B685B68FB60FB6823F051
:10463800784323F40043FB603B685B69FA681343E3
:10464800FB607B68FA685A6007F11407BD4680BCB6
:10465800704700BFFFE0CF0080B483B000AF786040
:104668000B46FB70FB78002B06D07B681B6843F079
:1046780001027B681A6005E07B681B6823F0010271
:104688007B681A6007F10C07BD4680BC704700BF05
:1046980080B487B000AFF8607B600B467B8113461F
:1046A8007B724FF000037B61FB685B687B617A6912
:1046B8000E4B13407B617B894FEA83534FEA935338
:1046C8007A7A4FEA024202F47F021A437B681A435D
:1046D8003B6A13437A6913437B61FB687A695A60C2
:1046E80007F11C07BD4680BC704700BF009800FC5E
:1046F80080B483B000AF78600B46FB70FA787B68B3
:104708009A6207F10C07BD4680BC704780B483B03D
:1047180000AF78607B685B6ADBB2184607F10C076C
:10472800BD4680BC704700BF80B485B000AF7860DC
:1047380039604FF00003BB604FF00003FB737B68E8
:104748009B69BB60BA683B681340BB60BB68002BC1
:1047580003D04FF00103FB7302E04FF00003FB733B
:10476800FB7B184607F11407BD4680BC704700BFA5
:1047780080B483B000AF786039607B683A68DA61EA
:1047880007F10C07BD4680BC704700BF80B48BB0F2
:1047980000AF78604FF000033B624FF00003FB610D
:1047A8004FF00003BB614FF000037B614FF0000343
:1047B8003B614FF000037B624FF00003FB604FF05A
:1047C8000003BB60934B5B6803F00C033B623B6ADE
:1047D800042B07D0082B09D0002B33D17B688E4AD5
:1047E8001A6033E07B688C4A1A602FE0894B5B685B
:1047F80003F47013FB61874B5B6803F48033BB6180
:10480800FB694FEA934303F10203FB61BB69002B89
:1048180005D1FB69814A02FB03F37B620EE07D4B05
:10482800DB6A03F00F0303F101037B617A4A7B69BA
:10483800B2FBF3F3FA6902FB03F37B627B687A6AE3
:104848001A6003E07B68744A1A6000BF714B5B68AA
:1048580003F0F0033B623B6A4FEA13133B62704A72
:104868003B6AD3181B78DBB2BB607B681A68BB68ED
:1048780022FA03F27B685A60664B5B6803F4E063D4
:104888003B623B6A4FEA13233B62654A3B6AD31893
:104898001B78DBB23B617B685A683B6922FA03F2FA
:1048A8007B689A605B4B5B6803F460533B623B6ACE
:1048B8004FEAD3233B625A4A3B6AD3181B78DBB2D0
:1048C800FB607B685A68FB6822FA03F27B68DA604F
:1048D800504BDB6A03F4F8733B623B6A4FEA1313ED
:1048E8003B62504B3A6A33F812309BB23B613B69EA
:1048F80003F01003002B06D07A6A3B69B2FBF3F28F
:104908007B681A6103E07B681A687B681A61414B0F
:10491800DB6A03F478533B623B6A4FEA53233B62FA
:10492800404B3A6A33F812309BB23B613B6903F063
:104938001003002B06D07A6A3B69B2FBF3F27B685E
:104948005A6103E07B681A687B685A61314B1B6BBC
:1049580003F01003002B03D17B682F4A9A6103E010
:104968007B681A687B689A612A4B1B6B03F02003EB
:10497800002B03D17B68284ADA6103E07B681A6858
:104988007B68DA61234B1B6B03F48073002B0ED01A
:104998007B681A687B6A9A4209D1FA68BB689A42AE
:1049A80005D17B6A4FEA43027B681A6203E07B68A1
:1049B800DA687B681A62174B1B6B03F40073002BD1
:1049C8000ED07B681A687B6A9A4209D1FA68BB687C
:1049D8009A4205D17B6A4FEA43027B685A6203E038
:1049E8007B68DA687B685A620A4B1B6B03F0030327
:1049F800002B04D17B68DA687B689A6228E0054B53
:104A08001B6B03F00303012B0ED17B681A687B68CC
:104A18009A621DE00010024000127A0000093D0071
:104A28002401002034010020664B1B6B03F00303B4
:104A3800022B04D17B684FF400429A6208E0614B74
:104A48001B6B03F00303032B02D17B685E4A9A6257
:104A58005C4B1B6B03F44033002B04D17B689A68D2
:104A68007B68DA6221E0574B1B6B03F44033B3F5E4
:104A7800803F04D17B681A687B68DA6215E0514B85
:104A88001B6B03F44033B3F5003F04D17B684FF44C
:104A98000042DA6209E04B4B1B6B03F44033B3F579
:104AA800403F02D17B68484ADA62464B1B6B03F4ED
:104AB8004023002B04D17B689A687B681A6321E045
:104AC800404B1B6B03F44023B3F5802F04D17B6864
:104AD8001A687B681A6315E03A4B1B6B03F4402392
:104AE800B3F5002F04D17B684FF400421A6309E044
:104AF800344B1B6B03F44023B3F5402F02D17B6882
:104B0800314A1A632F4B1B6B03F44013002B04D15B
:104B18007B689A687B685A6321E02A4B1B6B03F415
:104B28004013B3F5801F04D17B681A687B685A6309
:104B380015E0244B1B6B03F44013B3F5001F04D19D
:104B48007B684FF400425A6309E01E4B1B6B03F469
:104B58004013B3F5401F02D17B681B4A5A63194BB7
:104B68001B6B03F44003002B04D17B689A687B68B5
:104B78009A6321E0134B1B6B03F44003B3F5800FDA
:104B880004D17B681A687B689A6315E00D4B1B6B30
:104B980003F44003B3F5000F04D17B684FF40042DF
:104BA8009A6309E0074B1B6B03F44003B3F5400F0E
:104BB80002D17B68044A9A6307F12C07BD4680BC82
:104BC800704700BF0010024000127A0080B483B022
:104BD80000AF78600B46FB70FB78002B06D00A4BC1
:104BE800094A51697A680A435A6107E0064B064A3E
:104BF80051697A686FEA02020A405A6107F10C07A4
:104C0800BD4680BC704700BF0010024080B483B02E
:104C180000AF78600B46FB70FB78002B06D00A4B80
:104C2800094A91697A680A439A6107E0064B064A7D
:104C380091697A686FEA02020A409A6107F10C07E3
:104C4800BD4680BC704700BF0010024080B483B0EE
:104C580000AF78600B46FB70FB78002B06D00A4B40
:104C6800094AD1697A680A43DA6107E0064B064ABD
:104C7800D1697A686FEA02020A40DA6107F10C0723
:104C8800BD4680BC704700BF0010024080B485B0AC
:104C980000AF78600B46FB704FF00003FB607B6849
:104CA800FB60FB6803F10C03FB60FB68FA781A7081
:104CB80007F11407BD4680BC704700BF80B485B0BB
:104CC80000AF78604FF00003FB607B68FB60FB6817
:104CD80003F10C03FB60FB681B78DBB2184607F195
:104CE8001407BD4680BC704780B485B000AF7860BB
:104CF8000B467B804FF00003FB737B681B899AB2DD
:104D08007B8813409BB2002B03D04FF00103FB7349
:104D180002E04FF00003FB73FB7B184607F1140712
:104D2800BD4680BC704700BF90B484B000AF024657
:104D38000B46FA71BB714FF00003FB60BB7903F0BF
:104D480003034FEA83034FF00F0202FA03F3FB60F9
:104D58001A4BBA794FEA9202D2B21849B8794FEA97
:104D68009000C0B200F1020051F82000F9686FEA23
:104D78000101014002F1020243F822100F4BBA79F7
:104D88004FEA9202D2B20D49B8794FEA9000C0B208
:104D980000F1020051F82000FC79B97901F0030113
:104DA8004FEA810104FA01F1014302F1020243F8DA
:104DB800221007F11007BD4690BC70470000014063
:104DC8003863ED3EDA0F493F5E987B3FDA0FC93F03
:104DD8006937AC3168212233B40F14336821A23308
:104DE80000020001000400800008004000100020BC
:104DF800000020000000200000002000000020002B
:104E0800000020000000200000002000000020001A
:104E18000100000000000200000000000000000087
:104E2800000000000600000061636F7300000000CE
:104E3800737172740000000043000000F8B500BFF1
:104E4800F8BC08BC9E467047F8B500BFF8BC08BC63
:044E58009E467047BB
:044E5C001102000837
:044E6000E101000864
:104E64000100000008000020000000000000000015
:104E7400000000000000000000000000000000002E
:104E84000000000000000000404E00080000000088
:104E9400000000000000000000000000000000000E
:104EA40000000000000000000000000000000000FE
:104EB40000000000000000000000000000000000EE
:104EC40000000000000000000000000000000000DE
:104ED40000000000000000000000000000000000CE
:104EE40000000000000000000000000000000000BE
:104EF40000000000000000000000000000000000AE
:104F0400000000000000000000000000000000009D
:104F1400000000000000000000000000000000008D
:104F2400000000000000000000000000000000007D
:104F3400000000000000000000000000000000006D
:104F4400000000000000000000000000000000005D
:104F540000000000000000000010000000A000009D
:104F640000100048001000480010004800100048DD
:104F740000100048001000480010004800100048CD
:104F840000000048000000000102030401020304C1
:104F940006070809000001000200040006000800DA
:104FA4000A000C00100020004000800000010000F6
:0400000508001D4D85
:00000001FF
